:020000040000FA
:060000000A128A1110280B
:10000800FE00030E83120313C3000408C4000A0889
:10001800C5000A128A1129290A128A111328831382
:100028004030FD000230FE001F30FF002030840009
:100038000A128A1143220A128A11D201D301D40169
:10004800D501D601D701D801D901DA01DB01DC01DC
:10005800F901FA01FB01FC0183010A128A11342813
:100068008316031788018901091483160313850170
:100078000615861706178801870183120313860160
:1000880085018701880100300A128A11F7210A12B6
:100098008A118B018B178B150B108B160B1183167E
:1000A80003138101011081100115C8308312031355
:1000B8008100831603139617161783120313DC01A6
:1000C8005B085C02031869286A286C2808156D28E3
:1000D80008110D3083120313D000FB30CF00CF0B73
:1000E8007328D00B7328831203139F140D308312C7
:1000F8000313D000FB30CF00CF0B8028D00B802813
:10010800831203135A03031D8A288B28BA28881CD4
:100118008E288F28AD28081088101030C6000030AF
:10012800C7001E08CF00D0014F08C8005008C900FA
:100138000A128A11C0200A128A1183120313460870
:10014800D1005107203E840083130008870008145B
:10015800B928081088101E080F39CF004F07203E15
:1001680084008313000887008814DA015C0885007E
:1001780064280A128A11102883120313CC01C71F9E
:10018800C628C728CE28C609C709C60A0319C70A38
:10019800CC01CC0AC91FD128D228DB28C809C90933
:1001A800C80A0319C90A0130CA004A08CC06CD0199
:1001B800CE01460847040319E228E3281A29CB018F
:1001C800CB0AF12801300310C60DC70DFF3E031DF1
:1001D800E7280130CA004A08CB07C71FF428F528CA
:1001E800E62801300310CD0DCE0DFF3E031DF62885
:1001F80047084902031D022946084802031C05292D
:1002080006290D294608C8024708031CC903C90264
:100218004D1401300310C70CC60CFF3E031D0E29F8
:100228000130CB02031D19291A29F5284C08031996
:100238001E291F292429CD09CE09CD0A0319CE0A62
:100248004E08C7004D08C60008008B12861F2D29CE
:100258002E293B290B1C312932293B298B138B1161
:100268000130C0004008DC078B178B150B10061FE8
:100278003E293F294A290B1C422943294A298B1325
:100288008B110130DC028B178B150B100C1F4D29BD
:100298004E297C298B138B111030F0000030F100AF
:1002A8001E08C000C1014008F2004108F3000A120C
:1002B8008A1190210A128A11700883120313C2004E
:1002C8004207203E840083130008D400840A0008F3
:1002D800D5001E080F39C0004007203E84000008E2
:1002E800D200840A0008D3001E08C0004008DB00C2
:1002F8000B1D7F2980298429C8308100DA01DA0A98
:100308008B160B110C1345088A0044088400430E11
:100318008300FE0E7E0E0900F601F11F942995292F
:100328009C29F009F109F00A0319F10AF601F60A05
:10033800F31F9F29A029A929F209F309F20A031931
:10034800F30A0130F4007408F606F701F8017008A2
:1003580071040319B029B129E829F501F50ABF2963
:1003680001300310F00DF10DFF3E031DB5290130DA
:10037800F4007408F507F11FC229C329B429013014
:100388000310F70DF80DFF3E031DC4297108730211
:10039800031DD02970087202031CD329D429DB2934
:1003A8007008F2027108031CF303F302771401309A
:1003B8000310F10CF00CFF3E031DDC290130F5029F
:1003C800031DE729E829C32976080319EC29ED2933
:1003D800F229F709F809F70A0319F80A7808F10069
:1003E8007708F000080083120313C800112A831647
:1003F80003130C17831203130C171F083F394038D7
:100408009F001F119F111F129F169F101F14831604
:1004180003139F131F129F121E2A4808C600C70104
:100428004708003A0319192A1E2A4608003A0319F0
:10043800FB291E2A08003F340034063400345B349C
:1004480000344F340034663400346D3400347D3465
:100458000034073400347F3400346F340034773488
:1004680000347C340034393400345E340034793458
:100478000034713400347E088A007F0882000A1232
:100488008A113F220A128A118000840A04087D0614
:0C04980003190034FF0A0319FE0A432A6E
:04400E00D4E0FFFFFC
:00000001FF
