:020000040000FA
:060000000A128A1110280B
:10000800FE00030E83120313C3000408C4000A0889
:10001800C5000A128A1136290A128A111328831375
:100028004030FD000230FE000430FF002030840024
:100038000A128A1128220A128A11D201D301D40184
:10004800D501D601D701D801D901DA01DB01DC01DC
:10005800F901FA01FB01FC0183010A128A11342813
:100068008316031788018901091483160313850170
:100078000615861706178801870183120313860160
:10008800850187018801831603130C178312031354
:100098000C171F083F3940389F001F119F111F126E
:1000A8009F169F101F14831603139F131F129F126E
:1000B8008B018B178B150B108B160B1181010110FF
:1000C80081100115C83083120313810083160313AE
:1000D8009617161783120313DC015B085C020318DA
:1000E80076287728792808157A2808110D30831280
:1000F8000313D000FB30CF00CF0B8028D00B802813
:10010800831203139F140D3083120313D000FB30A6
:10011800CF00CF0B8D28D00B8D28831203135A03E1
:10012800031D97289828C728881C9B289C28BA282C
:10013800081088101030C6000030C7001E08CF0015
:10014800D0014F08C8005008C9000A128A11CD20F2
:100158000A128A11831203134608D1005107203E60
:1001680084008313000887000814C6280810881024
:100178001E080F39CF004F07203E84008313000864
:1001880087008814DA015C08850071280A128A1130
:10019800102883120313CC01C71FD328D428DB28C7
:1001A800C609C709C60A0319C70ACC01CC0AC91F60
:1001B800DE28DF28E828C809C909C80A0319C90AB6
:1001C8000130CA004A08CC06CD01CE0146084704D2
:1001D8000319EF28F0282729CB01CB0AFE28013084
:1001E8000310C60DC70DFF3E031DF4280130CA00D9
:1001F8004A08CB07C71F01290229F3280130031039
:10020800CD0DCE0DFF3E031D032947084902031DEE
:100218000F2946084802031C122913291A294608DF
:10022800C8024708031CC903C9024D140130031052
:10023800C70CC60CFF3E031D1B290130CB02031D52
:100248002629272902294C0803192B292C29312969
:10025800CD09CE09CD0A0319CE0A4E08C7004D08AC
:10026800C60008008B12861F3A293B2948290B1C17
:100278003E293F2948298B138B110130C0004008C3
:10028800DC078B178B150B10061F4B294C29572998
:100298000B1C4F29502957298B138B110130DC0275
:1002A8008B178B150B100C1F5A295B2989298B1367
:1002B8008B111030F0000030F1001E08C000C101A1
:1002C8004008F2004108F3000A128A119D210A121F
:1002D8008A11700883120313C2004207203E84006B
:1002E80083130008D400840A0008D5001E080F39BB
:1002F800C0004007203E84000008D200840A00089D
:10030800D3001E08C0004008DB000B1D8C298D2976
:100318009129C8308100DA01DA0A8B160B110C1307
:1003280045088A0044088400430E8300FE0E7E0EB2
:100338000900F601F11FA129A229A929F009F1094B
:10034800F00A0319F10AF601F60AF31FAC29AD29E0
:10035800B629F209F309F20A0319F30A0130F40085
:100368007408F606F701F801700871040319BD292D
:10037800BE29F529F501F50ACC2901300310F00D45
:10038800F10DFF3E031DC2290130F4007408F50782
:10039800F11FCF29D029C12901300310F70DF80D1D
:1003A800FF3E031DD12971087302031DDD29700862
:1003B8007202031CE029E129E8297008F202710899
:1003C800031CF303F302771401300310F10CF00C53
:1003D800FF3E031DE9290130F502031DF429F52923
:1003E800D02976080319F929FA29FF29F709F80904
:1003F800F70A0319F80A7808F1007708F0000800EE
:100408003F340034063400345B3400344F34003455
:10041800663400346D3400347D34003407340034DD
:100428007F3400346F340034773400347C34003443
:10043800393400345E340034793400347134003493
:100448007E088A007F0882000A128A1124220A1272
:100458008A118000840A04087D0603190034FF0A03
:060468000319FE0A282A18
:04400E00D4E0FFFFFC
:00000001FF
